:100000000C9465000C948D000C948D000C948D0064
:100010000C948D000C948D000C948D000C948D002C
:100020000C948D000C948D000C948D000C94370270
:100030000C948D000C94A7020C9481020C948D00FA
:100040000C948D000C948D000C948D000C948D00FC
:100050000C948D0000000002000000000000000071
:100060000504000700000000000000000000000080
:100070000000000000003B003800350032000000A6
:100080003A0037003400310002020202020202028A
:100090000404040404040404030303030303030328
:1000A0000101010101010101010204081020408049
:1000B0000102040810204080010204081020408042
:1000C0000102040810204080BF0311241FBECFE5A9
:1000D000D8E0DEBFCDBF21E0A2E7B0E001C01D92B5
:1000E000A831B207E1F710E0A0E6B0E0E8E1F8E0FF
:1000F00002C005900D92A237B107D9F710E0C5E60E
:10010000D0E004C02197FE010E940404C436D10748
:10011000C9F70E94D9020C940A040C94000090E0E4
:10012000FC01E855FF4F249188579F4FFC018491B3
:10013000882399F090E0880F991FFC01E258FF4F47
:10014000A591B491FC01EC58FF4F859194918FB724
:10015000F894EC91E22BEC938FBF089590E0FC01B2
:10016000EC5AFF4F2491FC01E855FF4F3491FC01FC
:10017000E857FF4FE491EE23C9F0222339F02430F1
:10018000F1F0A8F4213011F1223001F1F0E0EE0F8E
:10019000FF1FEC58FF4FA591B4918FB7F894EC91E5
:1001A000611118C030953E233C938FBF08952530D0
:1001B00051F0273059F785B58F7D85BDE7CF8FB5D5
:1001C0008F778FBDE3CF8FB58F7DFBCF83B78F7DCB
:1001D00083BFDCCF3E2BE8CFAF92BF92CF92DF92AE
:1001E000EF92FF920F931F93CF93DF936C017B01EC
:1001F0008B01040F151FEB015E01AE18BF08C0177D
:10020000D10759F06991D601ED91FC910190F081EF
:10021000E02DC6010995892B79F7C501DF91CF91B2
:100220001F910F91FF90EF90DF90CF90BF90AF9014
:100230000895FC01538D448D252F30E0842F90E0EC
:10024000821B930B541710F0CF96089501970895D1
:10025000FC01918D828D981761F0A28DAE0FBF2F9A
:10026000B11D5D968C91928D9F5F9F73928F90E0F0
:1002700008958FEF9FEF0895FC01918D828D98175F
:1002800031F0828DE80FF11D858D90E008958FEF9C
:100290009FEF08952FB7F8948091770090917800A0
:1002A000A0917900B0917A002FBF80938300909342
:1002B0008400A0938500B09386008BE790E00E94B5
:1002C0003C0197FF26C02FB7F8948091770090915A
:1002D0007800A0917900B0917A002FBF40918300FF
:1002E000509184006091850070918600841B950B6D
:1002F000A60BB70B40917F00509180006091810068
:100300007091820084179507A607B707B0F28FEFA8
:100310009FEF0895FC01918D228D892F90E0805CE4
:100320009F4F821B91098F73992708958BE790E067
:100330000E948A0121E0892B09F420E0822F089590
:1003400080E090E0892B29F00E94960181110C94A5
:1003500000000895FC01A48DA80FB92FB11DA35A68
:10036000BF4F2C91848D90E001968F739927848FD5
:10037000A689B7892C93A089B1898C9182748C93BA
:10038000938D848D981306C00288F389E02D8081B7
:100390008F7D80830895EF92FF920F931F93CF93E9
:1003A000DF93EC0181E0888F9B8D8C8D981319C0B1
:1003B000E889F989808185FF14C09FB7F894EE8998
:1003C000FF896083E889F9898081827480839FBF77
:1003D00081E090E0DF91CF911F910F91FF90EF901E
:1003E0000895F62E0B8D10E00F5F1F4F0F7311272E
:1003F000E02E8C8D8E110CC00FB607FCFACFE88969
:10040000F989808185FFF5CFCE010E94AA01F1CF45
:10041000EB8DEC0FFD2FF11DE35AFF4FF0829FB7DC
:10042000F8940B8FEA89FB8980818062CFCFCF93CC
:10043000DF93EC01888D8823B9F0AA89BB89E8890C
:10044000F9898C9185FD03C0808186FD0DC00FB6B2
:1004500007FCF7CF8C9185FFF2CF808185FFEDCF30
:10046000CE010E94AA01E9CFDF91CF9108951F929A
:100470000F920FB60F9211242F933F938F939F9358
:10048000AF93BF938091770090917800A09179000D
:10049000B0917A003091760023E0230F2D3768F178
:1004A00026E8230F0296A11DB11D209376008093AC
:1004B000770090937800A0937900B0937A008091B0
:1004C000720090917300A0917400B0917500019634
:1004D000A11DB11D8093720090937300A0937400CE
:1004E000B0937500BF91AF919F918F913F912F91E4
:1004F0000F900FBE0F901F9018950196A11DB11D72
:10050000D4CF1F920F920FB60F9211242F933F93C7
:100510004F935F936F937F938F939F93AF93BF930B
:10052000EF93FF938BE790E00E94AA01FF91EF9178
:10053000BF91AF919F918F917F916F915F914F91FB
:100540003F912F910F900FBE0F901F9018951F9203
:100550000F920FB60F9211242F938F939F93EF93C7
:10056000FF93E0918B00F0918C008081E0919100ED
:10057000F091920082FD1BC09081809194008F5F6A
:100580008F7320919500821741F0E0919400F0E084
:10059000E558FF4F958F80939400FF91EF919F91C5
:1005A0008F912F910F900FBE0F901F901895808103
:1005B000F4CF789483B7836083BF83B7886483BFA5
:1005C00089B7816089BFC2E0CEBD8EB581608EBD26
:1005D0008FB581608FBD85B5846085BD85B580642C
:1005E00085BD87E886B91AB880E00E948F0081E057
:1005F0000E948F0082E00E948F0083E00E948F00A3
:1006000060E080E00E94AE0060E081E00E94AE0009
:1006100060E082E00E94AE0060E083E00E94AE00F5
:10062000E0918B00F0918C00C083E0918700F09105
:1006300088001082E0918900F0918A008FEC80831D
:1006400010929300E0918F00F091900086E88083F3
:10065000E0918D00F0918E00808188698083E09127
:100660008D00F0918E0080818F7D8083C0E0D0E08E
:100670008BE790E00E948A01181619060CF05DC005
:100680000E944A01FC0197FD6AC08D32910521F05C
:10069000C0970A9708F05CC0C12CD12C760110E0FD
:1006A000E130F105D9F0ED32F10509F456C0CF0182
:1006B000C0970A9798F4AAE0B0E0A70196010E94BB
:1006C000EA036F01FF0FEE08FF08C60ED71EE81EF3
:1006D000F91E80E3C81AD108E108F1088BE790E021
:1006E0000E9428010E944A01FC01C0970A97C0F2AB
:1006F000E130F105A9F2112341F0F094E094D09497
:10070000C094C11CD11CE11CF11C60E080E00E947F
:10071000AE0060E081E00E94AE0060E082E00E94F6
:10072000AE0060E083E00E94AE0061E088E2C8169F
:10073000D104CCF480E00E94AE00209709F498CF59
:100740000E949601882309F493CF0E94000090CF65
:100750008BE790E00E94280193CF11E0BFCFC12C1E
:10076000D12C7601D2CF86E4C816D10414F481E0EE
:10077000E2CF82E00E94AE0061E083E0DCCFEBE7F5
:10078000F0E01382128288EE93E0A0E0B0E0848370
:100790009583A683B78384E690E09183808380E489
:1007A00090E09587848729E230E0378726872BE21F
:1007B00030E0318B208B2AE230E0338B228B958B1B
:1007C000848B8CE290E0978B868B118E128E138E29
:1007D000148E08950E94F503A59F900DB49F900D6F
:1007E000A49F800D911D11240895A29FB001B39F75
:1007F000C001A39F700D811D1124911DB29F700D2A
:10080000811D1124911D0895EE0FFF1F0590F49195
:08081000E02D0994F894FFCFDC
:1008180000000000CB01EC00190117028A01280131
:020828003C0191
:00000001FF
