:020000040000FA
:100000000C9458000C9480000C9480000C94800098
:100010000C9480000C9480000C9480000C94800060
:100020000C9480000C9480000C9480000C94800050
:100030000C9480000C9480000C9480000C94800040
:100040000C9417050C9480000C9487050C946105A2
:100050000C9480000C9480000C9480000C94800020
:100060000C94B9050C9480000000000025002800C5
:100070002B00040404040404040402020202020229
:10008000030303030303010204081020408001025C
:1000900004081020010204081020000000080002DB
:1000A0000100000304070000000000000000D80663
:1000B00011241FBECFEFD8E0DEBFCDBF11E0A0E01E
:1000C000B1E0E8E2F2E102C005900D92A238B1077A
:1000D000D9F722E0A2E8B1E001C01D92AB3FB20720
:1000E000E1F710E0C8E5D0E004C02197FE010E94CE
:1000F0000C09C735D107C9F70E9421070C941209D2
:100100000C94000090E0FC01E656FF4F2491FC01A6
:10011000EA57FF4F3491FC01EE58FF4FE491EE2374
:10012000C9F0222339F0233001F1A8F4213019F16C
:10013000223029F1F0E0EE0FFF1FE859FF4FA591A3
:10014000B4918FB7F894EC91611126C030953E239D
:100150003C938FBF08952730A9F02830C9F0243090
:1001600049F7809180008F7D03C0809180008F7758
:1001700080938000DFCF84B58F7784BDDBCF84B5DB
:100180008F7DFBCF8091B0008F778093B000D2CF6E
:100190008091B0008F7DF9CF3E2BDACF3FB7F89436
:1001A0008091410290914202A0914302B091440299
:1001B00026B5A89B05C02F3F19F00196A11DB11DC2
:1001C0003FBFBA2FA92F982F8827BC01CD01620FFE
:1001D000711D811D911D42E0660F771F881F991FB9
:1001E0004A95D1F708958F929F92AF92BF92CF9286
:1001F000DF92EF92FF924B015C010E94CE006B01F7
:100200007C010E94CE006C197D098E099F09683E11
:10021000734081059105A8F321E0821A9108A10895
:10022000B10888EEC80E83E0D81EE11CF11C8114D1
:100230009104A104B10429F7FF90EF90DF90CF90D3
:10024000BF90AF909F908F90089508950895AF92BA
:10025000BF92CF92DF92EF92FF920F931F93CF93B3
:10026000DF936C017B018B01040F151FEB015E0115
:10027000AE18BF08C017D10759F06991D601ED91AA
:10028000FC910190F081E02DC6010995892B79F749
:10029000C501DF91CF911F910F91FF90EF90DF90FB
:1002A000CF90BF90AF900895FC01538D448D252FC2
:1002B00030E0842F90E0821B930B541710F0CF9600
:1002C000089501970895FC01918D828D981761F032
:1002D000A28DAE0FBF2FB11D5D968C91928D9F5F49
:1002E0009F73928F90E008958FEF9FEF0895FC0128
:1002F000918D828D981731F0828DE80FF11D858DDB
:1003000090E008958FEF9FEF0895FC01918D228D6D
:10031000892F90E0805C9F4F821B91098F739927F2
:10032000089585E492E00E94850121E0892B09F47B
:1003300020E0822F089580E090E0892B29F00E9430
:10034000910181110C9400000895FC01A48DA80F67
:10035000B92FB11DA35ABF4F2C91848D90E0019607
:100360008F739927848FA689B7892C93A089B18927
:100370008C91837080648C93938D848D981306C0C8
:100380000288F389E02D80818F7D80830895EF922C
:10039000FF920F931F93CF93DF93EC0181E0888F3F
:1003A0009B8D8C8D98131AC0E889F989808185FF0F
:1003B00015C09FB7F894EE89FF896083E889F989B1
:1003C00080818370806480839FBF81E090E0DF91B3
:1003D000CF911F910F91FF90EF900895F62E0B8D06
:1003E00010E00F5F1F4F0F731127E02E8C8D8E11C1
:1003F0000CC00FB607FCFACFE889F989808185FF28
:10040000F5CFCE010E94A501F1CFEB8DEC0FFD2FB2
:10041000F11DE35AFF4FF0829FB7F8940B8FEA89E2
:10042000FB8980818062CFCFCF93DF93EC01888DF1
:100430008823B9F0AA89BB89E889F9898C9185FD5F
:1004400003C0808186FD0DC00FB607FCF7CF8C91ED
:1004500085FFF2CF808185FFEDCFCE010E94A501FF
:10046000E9CFDF91CF91089508952091C301260F20
:100470003327331F21323105ECF420910C02FC01AB
:1004800090E080E0243069F082E00895A091C301FB
:100490002191AC014D555E4FA40FB52FB11D2C938A
:1004A0000196861798F38091C301680F6093C3018A
:1004B00080E0089581E0089510920C0281E080931D
:1004C0000B021092E60161E082E10E94820061E08D
:1004D00083E10E948200E9EBF0E080818E7F8083DF
:1004E00080818D7F808388E48093B80085E4809349
:1004F000BC000895CF93DF9391E09093A2018823ED
:10050000B9F0C091B800D091BA008091BC008A7B4C
:100510008093BC0060E082E10E94820060E083E1A1
:100520000E9482000E945C02D093BA00C093B8007F
:10053000DF91CF9108950895E0913B0280913A02B6
:10054000E81730F4F0E0EE57FE4F808190E0089518
:100550008FEF9FEF089590913B0280913A022FEF29
:100560003FEF981748F4E92FF0E0EE57FE4F208157
:1005700030E09F5F90933B02C901089580913A0259
:1005800090913B02891B990B0895CF92DF92EF92D5
:10059000FF920F931F93CF93DF937C01CB018A01CE
:1005A00020911202222389F0EB016B01C40ED51EAB
:1005B000CC15DD0569F06991D701ED91FC910190B1
:1005C000F081E02DC7010995F3CF642F0E94350219
:1005D000C801DF91CF911F910F91FF90EF90DF90B5
:1005E000CF900895CF93DF931F92CDB7DEB7698385
:1005F000209112022223F9F020913802203258F083
:1006000021E030E0FC013383228390E080E00F9012
:10061000DF91CF91089580913902E82FF0E0ED5EEF
:10062000FD4F998190838F5F8093390280933802C8
:1006300081E090E0ECCF61E0CE0101960E943502AE
:10064000F7CFCF92DF92EF92FF920F931F93CF934A
:10065000DF93FC01C48121E020931202C093330296
:1006600010923902109238028485682B82EE92E053
:100670000E94F202D0913802D13208F092C00E945A
:10068000CE006B017C0180910C02811165C082E07B
:1006900080930C0281E080930B028FEF80930A021B
:1006A00010920902D0930802A3E1B2E0E8EEF1E073
:1006B00080E0D81385C01092E7018091E701CC0F4C
:1006C000C82BC093E7018091E601813009F07CC01E
:1006D0001092E6010E94CE006B017C018091E7013F
:1006E0008093BB0080910E0290910F02A0911002A6
:1006F000B0911102892B8A2B8B2B99F00E94CE008E
:1007000000910E0210910F022091100230911102FF
:100710006C197D098E099F090617170728073907E5
:10072000E0F18091BC0083FDD9CF85EC8093BC00C3
:100730000E94CE006B017C0180910C02823009F492
:1007400045C080910A028F3F61F180910A02803298
:1007500041F180910A0225C080910E0290910F0212
:10076000A0911002B0911102892B8A2B8B2B09F4D6
:100770008ACF0E94CE0000910E0210910F022091AC
:100780001002309111026C197D098E099F0906171C
:1007900017072807390708F076CF80910D020E94CD
:1007A0007A02109239021092380210921202DF91EE
:1007B000CF911F910F91FF90EF90DF90CF90089510
:1007C0009D9191938F5F75CF85EEB0CF80910E0292
:1007D00090910F02A0911002B0911102892B8A2BE7
:1007E0008B2B09F4A9CF0E94CE0000910E0210912C
:1007F0000F0220911002309111026C197D098E09AF
:100800009F09061717072807390708F095CFC5CFA6
:1008100090E080E008950F931F93CF938C01C62F33
:100820000E9421036C2F6460C8010E9421036C2F79
:100830006B7FC8010E94210383EC90E00197F1F7E0
:10084000CF911F910F9108950F931F93CF93DF9333
:100850008C01D62FC42F607F642B0E940B0480E193
:10086000D89FB00111246C2BC801DF91CF911F914B
:100870000F910C940B04CF93DF93CDB7DEB728977D
:100880000FB6F894DEBF0FBECDBF98E0E0E0F1E018
:10089000DE01119601900D929A95E1F79091F60282
:1008A000981708F48FEF90E0880F991F21E030E04F
:1008B0002C0F3D1F820F931FFC016081606840E098
:1008C0008EEE92E028960FB6F894DEBF0FBECDBF35
:1008D000DF91CF910C94240440E061E08EEE92E031
:1008E0000E9424048BE39FE10197F1F78091F702C6
:1008F000882319F080E00C943B04089541E00E94A5
:10090000240481E090E00895FB0101900020E9F7C4
:100910003197AF01461B570BDC01ED91FC91028032
:10092000F381E02D09948F929F92AF92BF92EF9244
:10093000FF920F931F93CF93DF93CDB7DEB7A197AD
:100940000FB6F894DEBF0FBECDBF7C01FA01CB011C
:1009500019A2223008F42AE08E010F5D1F4F822E6B
:10096000912CB12CA12CBF01A50194010E94D408A7
:10097000F901CA016A300CF5605DD8016E938D01F2
:10098000232B242B252B79F790E080E0109721F082
:10099000BD01C7010E948404A1960FB6F894DEBF82
:1009A0000FBECDBFDF91CF911F910F91FF90EF90C0
:1009B000BF90AF909F908F900895695CDECF85EDDA
:1009C0008093BC0080910E0290910F02A0911002C2
:1009D000B09111020796A11DB11D23E0B695A79510
:1009E000979587952A95D1F72091BC0024FD03C0E7
:1009F00010920C02089540910E0250910F026091E6
:100A0000100270911102452B462B472B69F300977A
:100A1000A105B10541F02AE22A95F1F700C001973E
:100A2000A109B109E1CF80910D020C947A021F92C5
:100A30000F920FB60F9211242F933F938F939F9392
:100A4000AF93BF9380913D0290913E02A0913F02EF
:100A5000B091400230913C0223E0230F2D3758F52E
:100A60000196A11DB11D20933C0280933D029093FD
:100A70003E02A0933F02B0934002809141029091C8
:100A80004202A0914302B09144020196A11DB11D02
:100A90008093410290934202A0934302B093440298
:100AA000BF91AF919F918F913F912F910F900FBE6A
:100AB0000F901F90189526E8230F0296A11DB11DD7
:100AC000D2CF1F920F920FB60F9211242F933F9304
:100AD0004F935F936F937F938F939F93AF93BF9346
:100AE000EF93FF9385E492E00E94A501FF91EF91BF
:100AF000BF91AF919F918F917F916F915F914F9136
:100B00003F912F910F900FBE0F901F9018951F923D
:100B10000F920FB60F9211242F938F939F93EF9301
:100B2000FF93E0915502F09156028081E0915B02C3
:100B3000F0915C0282FD1BC0908180915E028F5F0C
:100B40008F7320915F02821741F0E0915E02F0E026
:100B5000EB5BFD4F958F80935E02FF91EF919F912C
:100B60008F912F910F900FBE0F901F90189580813D
:100B7000F4CF1F920F920FB60F9211242F933F9331
:100B80004F935F936F937F938F939F93AF93BF9395
:100B9000EF93FF938091B900887F803609F44AC0B3
:100BA000F0F5883209F4A7C018F5803109F49BC02C
:100BB000B8F4882309F4F9C0883009F494C0FF918F
:100BC000EF91BF91AF919F918F917F916F915F91C5
:100BD0004F913F912F910F900FBE0F901F9018953E
:100BE000883109F488C0803251F780930A0214C01A
:100BF000803409F49DC040F48033B9F38833F9F6AA
:100C000080930A0285ECB0C0803509F485C0883530
:100C100009F496C0883499F60E94DF04D0CF883951
:100C200009F48CC038F5883729F050F4883611F073
:100C3000803729F683E080930C021092E50157C0BB
:100C4000883809F47BC0803919F0803809F0B7CFB3
:100C50008091E501803208F071C0E091E50181E00A
:100C60008E0F8093E5018091BB00F0E0EB53FE4FC7
:100C700080833DC0803B39F0E0F4803A09F479C0CC
:100C8000883A09F09CCF84E080930C021092C40152
:100C90001092C301E0913602F091370209958091DC
:100CA000C30181110FC081E08093C3011092A301A1
:100CB00009C0803C09F4A6CF883C09F4A3CF883B47
:100CC00009F07DCFE091C40181E08E0F8093C401D3
:100CD000F0E0ED55FE4F80818093BB009091C40100
:100CE0008091C30129C08091E7018093BB0085EC0E
:100CF0008093BC0064CF90910902809108029817FC
:100D000058F5E091090281E08E0F80930902F0E02E
:100D1000E851FE4F8081E9CFE091090281E08E0F1A
:100D2000809309028091BB00F0E0E851FE4F808380
:100D300090910902809108029817C8F285E8D8CFEF
:100D4000E091090281E08E0F809309028091BB003F
:100D5000F0E0E851FE4F808380910B0281115CCF5F
:100D600081E08093E60184EA8093BC0010920C023B
:100D700026CF85EC8093BC0010920C028091E50197
:100D8000803230F4E091E501F0E0EB53FE4F108249
:100D90006091E50170E0E0913402F091350285EC5C
:100DA00091E009951092E5010ACF10920A0234CF22
:100DB000E5E4F2E01382128288EE93E0A0E0B0E076
:100DC00084839583A683B7832CE031E0318320832D
:100DD00025EC30E03587248724EC30E03787268700
:100DE00020EC30E0318B208B21EC30E0338B228BF8
:100DF00022EC30E0358B248B26EC30E0378B268BD1
:100E0000118E128E138E148EE2EEF2E01382128295
:100E100084839583A683B7838EE191E09183808359
:100E2000EEEEF2E01382128280E391E09183808300
:100E3000118680E2848380E1828782E08387148642
:100E40000895789484B5826084BD84B5816084BD42
:100E500085B5826085BD85B5816085BD80916E0058
:100E6000816080936E001092810080918100826089
:100E700080938100809181008160809381008091C6
:100E800080008160809380008091B10084608093B5
:100E9000B1008091B00081608093B00080917A00B1
:100EA000846080937A0080917A00826080937A00D7
:100EB00080917A00816080937A0080917A008068C6
:100EC00080937A001092C100E0915502F091560291
:100ED00082E08083E0915102F09152021082E09111
:100EE0005302F09154028FEC808310925D02E091E6
:100EF0005902F0915A0286E08083E0915702F09106
:100F00005802808180618083E0915702F0915802FD
:100F1000808188608083E0915702F091580280813F
:100F200080688083E0915702F091580280818F7D24
:100F3000808310923B0210923A0210923902109272
:100F400038020E945C0285E291E090933702809320
:100F5000360286E291E0909335028093340210923B
:100F6000F3028091F902823018F098E09093F30236
:100F70008093F60262E370E080E090E00E94F3006C
:100F80006091FA028EEE92E00E94210368EE73E017
:100F900080E090E00E94F30060E38EEE92E00E9419
:100FA0000B04CBE4D6E4CE010197F1F760E38EEEBB
:100FB00092E00E940B042197F1F760E38EEE92E03D
:100FC0000E940B0483E592E00197F1F760E28EEE58
:100FD00092E00E940B046091F302606240E08EEEAA
:100FE00092E00E94240484E08093F40240E06CE0EC
:100FF0008EEE92E00E9424040E946C0482E08093B2
:10100000F50240E066E08EEE92E00E94240440E0AB
:1010100062E08EEE92E00E9424048BE39FE1019750
:10102000F1F788E08093FA0260E08EEE92E00E9491
:10103000210380E00E943B0468E371E08EEE92E0C1
:101040000E94840468EE73E080E090E00E94F30068
:101050000E946C0480E4782E88248A9493E0992E70
:10106000A12CB12C00E010E070927C0080917A00FD
:10107000806480937A0080917A0086FDFCCFA091F5
:101080007800B091790024E630E00E940509A501BE
:1010900094010E94B50869017A01E9012AE0BA01C8
:1010A000A601F7FE0DC06DE285E492E00E94C70143
:1010B00044275527BA014C195D096E097F092AE0BA
:1010C00085E492E00E94930466E471E085E492E096
:1010D0000E94840480E00E943B0469E471E08EEE8B
:1010E00092E00E9484042AE0B701A601F7FE0EC038
:1010F00041E06DE28EEE92E00E94240444275527E1
:10110000BA014C195D096E097F092AE08EEE92E062
:101110000E9493046DE771E08EEE92E00E948404D9
:1011200081E00E943B0461E571E0C832D1053CF0EA
:1011300061E671E0C634D10514F061E771E08EEE2E
:1011400092E00E94840464EF71E080E090E00E94ED
:10115000F3000115110509F487CF0E94910188233E
:1011600009F482CF0E9400007FCF052E97FB1EF46A
:1011700000940E94CC0857FD07D00E94D40807FCB9
:1011800003D04EF40C94CC085095409530952195A1
:101190003F4F4F4F5F4F08959095809570956195A3
:1011A0007F4F8F4F9F4F0895A1E21A2EAA1BBB1BA2
:1011B000FD010DC0AA1FBB1FEE1FFF1FA217B30723
:1011C000E407F50720F0A21BB30BE40BF50B661F39
:1011D000771F881F991F1A9469F7609570958095FD
:1011E00090959B01AC01BD01CF010895A29FB00174
:1011F000B39FC001A39F700D811D1124911DB29F4B
:10120000700D811D1124911D08950E94F608B7FFED
:101210000895821B930B0895EE0FFF1F0590F49124
:10122000E02D0994F894FFCF000040001400540012
:1012300000000000C7012701540114028501630169
:10124000770100000000F202C50208049B02BE0202
:10125000AB029C02000000007E0427010804340257
:10126000536D617274204D6F6E69746F72000D0A58
:101270000056616C75653A20005374617475733A59
:10128000204E4F524D414C20005374617475733A97
:10129000204D454449554D20005374617475733A8F
:0A12A00020484947482020200000A4
:107E0000112484B714BE81FFF0D085E080938100F7
:107E100082E08093C00088E18093C10086E0809377
:107E2000C20080E18093C4008EE0C9D0259A86E02C
:107E300020E33CEF91E0309385002093840096BBD3
:107E4000B09BFECF1D9AA8958150A9F7CC24DD24C4
:107E500088248394B5E0AB2EA1E19A2EF3E0BF2EE7
:107E6000A2D0813461F49FD0082FAFD0023811F036
:107E7000013811F484E001C083E08DD089C08234E0
:107E800011F484E103C0853419F485E0A6D080C0E4
:107E9000853579F488D0E82EFF2485D0082F10E0AE
:107EA000102F00270E291F29000F111F8ED06801E7
:107EB0006FC0863521F484E090D080E0DECF843638
:107EC00009F040C070D06FD0082F6DD080E0C81688
:107ED00080E7D80618F4F601B7BEE895C0E0D1E017
:107EE00062D089930C17E1F7F0E0CF16F0E7DF06D8
:107EF00018F0F601B7BEE89568D007B600FCFDCFD4
:107F0000A601A0E0B1E02C9130E011968C91119780
:107F100090E0982F8827822B932B1296FA010C0160
:107F200087BEE89511244E5F5F4FF1E0A038BF0790
:107F300051F7F601A7BEE89507B600FCFDCF97BE46
:107F4000E89526C08437B1F42ED02DD0F82E2BD052
:107F50003CD0F601EF2C8F010F5F1F4F84911BD097
:107F6000EA94F801C1F70894C11CD11CFA94CF0C13
:107F7000D11C0EC0853739F428D08EE10CD085E9AC
:107F80000AD08FE07ACF813511F488E018D01DD067
:107F900080E101D065CF982F8091C00085FFFCCF94
:107FA0009093C60008958091C00087FFFCCF809118
:107FB000C00084FD01C0A8958091C6000895E0E648
:107FC000F0E098E1908380830895EDDF803219F02E
:107FD00088E0F5DFFFCF84E1DECF1F93182FE3DFCA
:107FE0001150E9F7F2DF1F91089580E0E8DFEE27F6
:047FF000FF270994CA
:027FFE00040479
:00000001FF
